{
  "contractName": "Farmer",
  "abi": [
    {
      "inputs": [],
      "payable": false,
      "stateMutability": "nonpayable",
      "type": "constructor"
    },
    {
      "anonymous": false,
      "inputs": [
        {
          "indexed": true,
          "internalType": "address",
          "name": "_account",
          "type": "address"
        }
      ],
      "name": "FarmerAdded",
      "type": "event"
    },
    {
      "anonymous": false,
      "inputs": [
        {
          "indexed": true,
          "internalType": "address",
          "name": "_account",
          "type": "address"
        }
      ],
      "name": "FarmerRemoved",
      "type": "event"
    },
    {
      "constant": true,
      "inputs": [
        {
          "internalType": "address",
          "name": "_account",
          "type": "address"
        }
      ],
      "name": "isFarmer",
      "outputs": [
        {
          "internalType": "bool",
          "name": "",
          "type": "bool"
        }
      ],
      "payable": false,
      "stateMutability": "view",
      "type": "function"
    },
    {
      "constant": false,
      "inputs": [
        {
          "internalType": "address",
          "name": "_account",
          "type": "address"
        }
      ],
      "name": "addFarmer",
      "outputs": [],
      "payable": false,
      "stateMutability": "nonpayable",
      "type": "function"
    },
    {
      "constant": false,
      "inputs": [],
      "name": "removeFarmer",
      "outputs": [],
      "payable": false,
      "stateMutability": "nonpayable",
      "type": "function"
    }
  ],
  "bytecode": "0x608060405234801561001057600080fd5b5061002933600061005960201b61014e1790919060201c565b60405133907f2e0ded4123377a3c2bc9a26f1717655a129e2f20752924d42e730ec89c83dbd090600090a26100e3565b6001600160a01b03811661006c57600080fd5b61007f82826001600160e01b036100ae16565b1561008957600080fd5b6001600160a01b0316600090815260209190915260409020805460ff19166001179055565b60006001600160a01b0382166100c357600080fd5b506001600160a01b03166000908152602091909152604090205460ff1690565b61024c806100f26000396000f3fe608060405234801561001057600080fd5b50600436106100415760003560e01c806380c3f96d14610046578063b94290691461006e578063cf7a9b7a146100a8575b600080fd5b61006c6004803603602081101561005c57600080fd5b50356001600160a01b03166100b0565b005b6100946004803603602081101561008457600080fd5b50356001600160a01b03166100f8565b604080519115158252519081900360200190f35b61006c610110565b6100c160008263ffffffff61014e16565b6040516001600160a01b038216907f2e0ded4123377a3c2bc9a26f1717655a129e2f20752924d42e730ec89c83dbd090600090a250565b600061010a818363ffffffff61019a16565b92915050565b61012160003363ffffffff6101cf16565b60405133907fa5e0f060af304ab17dd418c7927e3da3ae7868189bf387aee09ab179ccc572f290600090a2565b6001600160a01b03811661016157600080fd5b61016b828261019a565b1561017557600080fd5b6001600160a01b0316600090815260209190915260409020805460ff19166001179055565b60006001600160a01b0382166101af57600080fd5b506001600160a01b03166000908152602091909152604090205460ff1690565b6001600160a01b0381166101e257600080fd5b6101ec828261019a565b6101f557600080fd5b6001600160a01b0316600090815260209190915260409020805460ff1916905556fea265627a7a723158204d890136942bff17d06855bb07c5b2bed6695dbe6dbde0a0486c518cf2e985e764736f6c63430005100032",
  "source": "// SPDX-License-Identifier: MIT\r\npragma solidity >=0.4.21 <0.9.0;\r\n\r\nimport \"./Roles.sol\";\r\n\r\ncontract Farmer {\r\n  using Roles for Roles.Role;\r\n\r\n  event FarmerAdded(address indexed _account);\r\n  event FarmerRemoved(address indexed _account);\r\n\r\n  Roles.Role  farmersList;\r\n\r\n  constructor() public {\r\n    farmersList.addRole(msg.sender);\r\n    emit FarmerAdded(msg.sender);\r\n  }\r\n\r\n  ///@dev Modifiers for Farmer.\r\n  modifier onlyFarmer() {\r\n    require(isFarmer(msg.sender));\r\n    _;\r\n  }\r\n  /*-----------------------------*/\r\n\r\n  ///@dev Farmer Utility functions.\r\n  function isFarmer(address _account) public view returns (bool) {\r\n    return farmersList.hasRole(_account);\r\n  }\r\n\r\n  function addFarmer(address _account ) public {\r\n    farmersList.addRole(_account);\r\n    emit FarmerAdded(_account);\r\n  }\r\n\r\n  function removeFarmer() public {\r\n    farmersList.removeRole(msg.sender);\r\n    emit FarmerRemoved(msg.sender);\r\n  }\r\n  /*-----------------------------*/\r\n\r\n}\r\n",
  "sourcePath": "C:\\Users\\Jane\\Desktop\\meatvaluechain\\contracts\\roles\\Farmer.sol",
  "compiler": {
    "name": "solc",
    "version": "0.5.16+commit.9c3226ce.Emscripten.clang"
  },
  "schemaVersion": "3.4.10",
  "updatedAt": "2022-11-28T07:50:31.255Z",
  "devdoc": {
    "methods": {
      "isFarmer(address)": {
        "details": "Farmer Utility functions."
      }
    }
  },
  "userdoc": {
    "methods": {}
  }
}