{
  "contractName": "SortationHub",
  "abi": [
    {
      "inputs": [],
      "payable": false,
      "stateMutability": "nonpayable",
      "type": "constructor"
    },
    {
      "anonymous": false,
      "inputs": [
        {
          "indexed": true,
          "internalType": "address",
          "name": "_account",
          "type": "address"
        }
      ],
      "name": "SortationHubAdded",
      "type": "event"
    },
    {
      "anonymous": false,
      "inputs": [
        {
          "indexed": true,
          "internalType": "address",
          "name": "_account",
          "type": "address"
        }
      ],
      "name": "SortationHubRemoved",
      "type": "event"
    },
    {
      "constant": true,
      "inputs": [
        {
          "internalType": "address",
          "name": "_account",
          "type": "address"
        }
      ],
      "name": "isSortationHub",
      "outputs": [
        {
          "internalType": "bool",
          "name": "",
          "type": "bool"
        }
      ],
      "payable": false,
      "stateMutability": "view",
      "type": "function"
    },
    {
      "constant": false,
      "inputs": [
        {
          "internalType": "address",
          "name": "_account",
          "type": "address"
        }
      ],
      "name": "addSortationHub",
      "outputs": [],
      "payable": false,
      "stateMutability": "nonpayable",
      "type": "function"
    },
    {
      "constant": false,
      "inputs": [],
      "name": "removeSortationHub",
      "outputs": [],
      "payable": false,
      "stateMutability": "nonpayable",
      "type": "function"
    }
  ],
  "bytecode": "0x608060405234801561001057600080fd5b5061002933600061005960201b6101601790919060201c565b60405133907ff24b2b42933e0e5ea403c4c61c4acb4d2e78185563b0e7a2df41dab9af91690390600090a26100e3565b6001600160a01b03811661006c57600080fd5b61007f82826001600160e01b036100ae16565b1561008957600080fd5b6001600160a01b0316600090815260209190915260409020805460ff19166001179055565b60006001600160a01b0382166100c357600080fd5b506001600160a01b03166000908152602091909152604090205460ff1690565b61025e806100f26000396000f3fe608060405234801561001057600080fd5b50600436106100415760003560e01c806313d1ca9b14610046578063b2d598fd1461006e578063bf455dc214610076575b600080fd5b61006c6004803603602081101561005c57600080fd5b50356001600160a01b03166100b0565b005b61006c61010a565b61009c6004803603602081101561008c57600080fd5b50356001600160a01b0316610148565b604080519115158252519081900360200190f35b6100b933610148565b6100c257600080fd5b6100d360008263ffffffff61016016565b6040516001600160a01b038216907ff24b2b42933e0e5ea403c4c61c4acb4d2e78185563b0e7a2df41dab9af91690390600090a250565b61011b60003363ffffffff6101ac16565b60405133907ff9478998235c7916ffabc3a24b4baa4e00c2084e38ef18158d2fca78985a5feb90600090a2565b600061015a818363ffffffff6101f416565b92915050565b6001600160a01b03811661017357600080fd5b61017d82826101f4565b1561018757600080fd5b6001600160a01b0316600090815260209190915260409020805460ff19166001179055565b6001600160a01b0381166101bf57600080fd5b6101c982826101f4565b6101d257600080fd5b6001600160a01b0316600090815260209190915260409020805460ff19169055565b60006001600160a01b03821661020957600080fd5b506001600160a01b03166000908152602091909152604090205460ff169056fea265627a7a723158204e230f9d99bb3bc3a5bf3b1ae32de35da70619ec1e07ccbbf9d59a162052705c64736f6c63430005100032",
  "source": "// SPDX-License-Identifier: MIT\r\npragma solidity >=0.4.21 <0.9.0;\r\n\r\nimport \"./Roles.sol\";\r\n\r\ncontract SortationHub {\r\n  using Roles for Roles.Role;\r\n\r\n  event SortationHubAdded(address indexed _account);\r\n  event SortationHubRemoved(address indexed _account);\r\n\r\n  Roles.Role private sortationHubsList;\r\n\r\n  constructor() public {\r\n    sortationHubsList.addRole(msg.sender);\r\n    emit SortationHubAdded(msg.sender);\r\n  }\r\n\r\n  ///@dev Modifiers for SortationHub.\r\n  modifier onlySortationHub() {\r\n    require(isSortationHub(msg.sender));\r\n    _;\r\n  }\r\n  /*-----------------------------*/\r\n\r\n  ///@dev SortationHub Utility functions.\r\n  function isSortationHub(address _account) public view returns (bool) {\r\n    return sortationHubsList.hasRole(_account);\r\n  }\r\n\r\n  function addSortationHub(address _account) public onlySortationHub {\r\n    sortationHubsList.addRole(_account);\r\n    emit SortationHubAdded(_account);\r\n  }\r\n\r\n  function removeSortationHub() public {\r\n    sortationHubsList.removeRole(msg.sender);\r\n    emit SortationHubRemoved(msg.sender);\r\n  }\r\n  /*-----------------------------*/\r\n\r\n}\r\n",
  "sourcePath": "C:\\Users\\Jane\\Desktop\\meatvaluechain\\contracts\\roles\\SortationHub.sol",
  "compiler": {
    "name": "solc",
    "version": "0.5.16+commit.9c3226ce.Emscripten.clang"
  },
  "schemaVersion": "3.4.10",
  "updatedAt": "2022-11-28T07:50:31.280Z",
  "devdoc": {
    "methods": {
      "isSortationHub(address)": {
        "details": "SortationHub Utility functions."
      }
    }
  },
  "userdoc": {
    "methods": {}
  }
}