{
  "contractName": "SupplyChain",
  "abi": [
    {
      "inputs": [],
      "payable": true,
      "stateMutability": "payable",
      "type": "constructor"
    },
    {
      "anonymous": false,
      "inputs": [
        {
          "indexed": true,
          "internalType": "address",
          "name": "_account",
          "type": "address"
        }
      ],
      "name": "FarmerAdded",
      "type": "event"
    },
    {
      "anonymous": false,
      "inputs": [
        {
          "indexed": false,
          "internalType": "uint256",
          "name": "uid",
          "type": "uint256"
        }
      ],
      "name": "Manufactured",
      "type": "event"
    },
    {
      "anonymous": false,
      "inputs": [
        {
          "indexed": false,
          "internalType": "uint256",
          "name": "uid",
          "type": "uint256"
        }
      ],
      "name": "PurchasedByCustomer",
      "type": "event"
    },
    {
      "anonymous": false,
      "inputs": [
        {
          "indexed": false,
          "internalType": "uint256",
          "name": "uid",
          "type": "uint256"
        }
      ],
      "name": "PurchasedByThirdParty",
      "type": "event"
    },
    {
      "anonymous": false,
      "inputs": [
        {
          "indexed": false,
          "internalType": "uint256",
          "name": "uid",
          "type": "uint256"
        }
      ],
      "name": "ReceivedByCustomer",
      "type": "event"
    },
    {
      "anonymous": false,
      "inputs": [
        {
          "indexed": false,
          "internalType": "uint256",
          "name": "uid",
          "type": "uint256"
        }
      ],
      "name": "ReceivedByDeliveryHub",
      "type": "event"
    },
    {
      "anonymous": false,
      "inputs": [
        {
          "indexed": false,
          "internalType": "uint256",
          "name": "uid",
          "type": "uint256"
        }
      ],
      "name": "ReceivedByThirdParty",
      "type": "event"
    },
    {
      "anonymous": false,
      "inputs": [
        {
          "indexed": false,
          "internalType": "uint256",
          "name": "uid",
          "type": "uint256"
        }
      ],
      "name": "ShippedByDeliveryHub",
      "type": "event"
    },
    {
      "anonymous": false,
      "inputs": [
        {
          "indexed": false,
          "internalType": "uint256",
          "name": "uid",
          "type": "uint256"
        }
      ],
      "name": "ShippedByFarmer",
      "type": "event"
    },
    {
      "anonymous": false,
      "inputs": [
        {
          "indexed": false,
          "internalType": "uint256",
          "name": "uid",
          "type": "uint256"
        }
      ],
      "name": "ShippedByThirdParty",
      "type": "event"
    },
    {
      "constant": true,
      "inputs": [],
      "name": "uid",
      "outputs": [
        {
          "internalType": "uint256",
          "name": "",
          "type": "uint256"
        }
      ],
      "payable": false,
      "stateMutability": "view",
      "type": "function"
    },
    {
      "constant": true,
      "inputs": [
        {
          "internalType": "address",
          "name": "_account",
          "type": "address"
        }
      ],
      "name": "hasFarmerRole",
      "outputs": [
        {
          "internalType": "bool",
          "name": "",
          "type": "bool"
        }
      ],
      "payable": false,
      "stateMutability": "view",
      "type": "function"
    },
    {
      "constant": false,
      "inputs": [
        {
          "internalType": "address",
          "name": "_account",
          "type": "address"
        }
      ],
      "name": "addFarmerRole",
      "outputs": [],
      "payable": false,
      "stateMutability": "nonpayable",
      "type": "function"
    },
    {
      "constant": true,
      "inputs": [
        {
          "internalType": "address",
          "name": "_account",
          "type": "address"
        }
      ],
      "name": "hasThirdPartyRole",
      "outputs": [
        {
          "internalType": "bool",
          "name": "",
          "type": "bool"
        }
      ],
      "payable": false,
      "stateMutability": "view",
      "type": "function"
    },
    {
      "constant": false,
      "inputs": [
        {
          "internalType": "address",
          "name": "_account",
          "type": "address"
        }
      ],
      "name": "addThirdPartyRole",
      "outputs": [],
      "payable": false,
      "stateMutability": "nonpayable",
      "type": "function"
    },
    {
      "constant": true,
      "inputs": [
        {
          "internalType": "address",
          "name": "_account",
          "type": "address"
        }
      ],
      "name": "hasDeliveryHubRole",
      "outputs": [
        {
          "internalType": "bool",
          "name": "",
          "type": "bool"
        }
      ],
      "payable": false,
      "stateMutability": "view",
      "type": "function"
    },
    {
      "constant": false,
      "inputs": [
        {
          "internalType": "address",
          "name": "_account",
          "type": "address"
        }
      ],
      "name": "addDeliveryHubRole",
      "outputs": [],
      "payable": false,
      "stateMutability": "nonpayable",
      "type": "function"
    },
    {
      "constant": true,
      "inputs": [
        {
          "internalType": "address",
          "name": "_account",
          "type": "address"
        }
      ],
      "name": "hasCustomerRole",
      "outputs": [
        {
          "internalType": "bool",
          "name": "",
          "type": "bool"
        }
      ],
      "payable": false,
      "stateMutability": "view",
      "type": "function"
    },
    {
      "constant": false,
      "inputs": [
        {
          "internalType": "address",
          "name": "_account",
          "type": "address"
        }
      ],
      "name": "addCustomerRole",
      "outputs": [],
      "payable": false,
      "stateMutability": "nonpayable",
      "type": "function"
    },
    {
      "constant": false,
      "inputs": [
        {
          "internalType": "string",
          "name": "farmerName",
          "type": "string"
        },
        {
          "internalType": "string",
          "name": "farmerDetails",
          "type": "string"
        },
        {
          "internalType": "string",
          "name": "farmerLongitude",
          "type": "string"
        },
        {
          "internalType": "string",
          "name": "farmerLatitude",
          "type": "string"
        },
        {
          "internalType": "string",
          "name": "productType",
          "type": "string"
        },
        {
          "internalType": "string",
          "name": "SlaughterHouse",
          "type": "string"
        },
        {
          "internalType": "string",
          "name": "AverageWeight",
          "type": "string"
        },
        {
          "internalType": "uint256",
          "name": "Age",
          "type": "uint256"
        },
        {
          "internalType": "string",
          "name": "CarcassWeight",
          "type": "string"
        },
        {
          "internalType": "string",
          "name": "VetId",
          "type": "string"
        },
        {
          "internalType": "uint256",
          "name": "productPrice",
          "type": "uint256"
        }
      ],
      "name": "manufactureProduct",
      "outputs": [],
      "payable": false,
      "stateMutability": "nonpayable",
      "type": "function"
    },
    {
      "constant": false,
      "inputs": [
        {
          "internalType": "uint256",
          "name": "_uid",
          "type": "uint256"
        }
      ],
      "name": "purchaseByThirdParty",
      "outputs": [],
      "payable": false,
      "stateMutability": "nonpayable",
      "type": "function"
    },
    {
      "constant": false,
      "inputs": [
        {
          "internalType": "uint256",
          "name": "_uid",
          "type": "uint256"
        }
      ],
      "name": "shipToThirdParty",
      "outputs": [],
      "payable": false,
      "stateMutability": "nonpayable",
      "type": "function"
    },
    {
      "constant": false,
      "inputs": [
        {
          "internalType": "uint256",
          "name": "_uid",
          "type": "uint256"
        },
        {
          "internalType": "string",
          "name": "thirdPartyLongitude",
          "type": "string"
        },
        {
          "internalType": "string",
          "name": "thirdPartyLatitude",
          "type": "string"
        }
      ],
      "name": "receiveByThirdParty",
      "outputs": [],
      "payable": false,
      "stateMutability": "nonpayable",
      "type": "function"
    },
    {
      "constant": false,
      "inputs": [
        {
          "internalType": "uint256",
          "name": "_uid",
          "type": "uint256"
        }
      ],
      "name": "purchaseByCustomer",
      "outputs": [],
      "payable": false,
      "stateMutability": "nonpayable",
      "type": "function"
    },
    {
      "constant": false,
      "inputs": [
        {
          "internalType": "uint256",
          "name": "_uid",
          "type": "uint256"
        }
      ],
      "name": "shipByThirdParty",
      "outputs": [],
      "payable": false,
      "stateMutability": "nonpayable",
      "type": "function"
    },
    {
      "constant": false,
      "inputs": [
        {
          "internalType": "uint256",
          "name": "_uid",
          "type": "uint256"
        },
        {
          "internalType": "string",
          "name": "deliveryHubLongitude",
          "type": "string"
        },
        {
          "internalType": "string",
          "name": "deliveryHubLatitude",
          "type": "string"
        }
      ],
      "name": "receiveByDeliveryHub",
      "outputs": [],
      "payable": false,
      "stateMutability": "nonpayable",
      "type": "function"
    },
    {
      "constant": false,
      "inputs": [
        {
          "internalType": "uint256",
          "name": "_uid",
          "type": "uint256"
        }
      ],
      "name": "shipByDeliveryHub",
      "outputs": [],
      "payable": false,
      "stateMutability": "nonpayable",
      "type": "function"
    },
    {
      "constant": false,
      "inputs": [
        {
          "internalType": "uint256",
          "name": "_uid",
          "type": "uint256"
        }
      ],
      "name": "receiveByCustomer",
      "outputs": [],
      "payable": false,
      "stateMutability": "nonpayable",
      "type": "function"
    },
    {
      "constant": true,
      "inputs": [
        {
          "internalType": "uint256",
          "name": "_uid",
          "type": "uint256"
        },
        {
          "internalType": "string",
          "name": "_type",
          "type": "string"
        },
        {
          "internalType": "uint256",
          "name": "i",
          "type": "uint256"
        }
      ],
      "name": "fetchProductPart1",
      "outputs": [
        {
          "internalType": "uint256",
          "name": "",
          "type": "uint256"
        },
        {
          "internalType": "uint256",
          "name": "",
          "type": "uint256"
        },
        {
          "internalType": "address",
          "name": "",
          "type": "address"
        },
        {
          "internalType": "address",
          "name": "",
          "type": "address"
        },
        {
          "internalType": "string",
          "name": "",
          "type": "string"
        },
        {
          "internalType": "string",
          "name": "",
          "type": "string"
        },
        {
          "internalType": "string",
          "name": "",
          "type": "string"
        },
        {
          "internalType": "string",
          "name": "",
          "type": "string"
        }
      ],
      "payable": false,
      "stateMutability": "view",
      "type": "function"
    },
    {
      "constant": true,
      "inputs": [
        {
          "internalType": "uint256",
          "name": "_uid",
          "type": "uint256"
        },
        {
          "internalType": "string",
          "name": "_type",
          "type": "string"
        },
        {
          "internalType": "uint256",
          "name": "i",
          "type": "uint256"
        }
      ],
      "name": "fetchProductPart2",
      "outputs": [
        {
          "internalType": "uint256",
          "name": "",
          "type": "uint256"
        },
        {
          "internalType": "string",
          "name": "",
          "type": "string"
        },
        {
          "internalType": "string",
          "name": "",
          "type": "string"
        },
        {
          "internalType": "uint256",
          "name": "",
          "type": "uint256"
        },
        {
          "internalType": "string",
          "name": "",
          "type": "string"
        },
        {
          "internalType": "enum Structure.State",
          "name": "",
          "type": "uint8"
        },
        {
          "internalType": "address",
          "name": "",
          "type": "address"
        },
        {
          "internalType": "string",
          "name": "",
          "type": "string"
        }
      ],
      "payable": false,
      "stateMutability": "view",
      "type": "function"
    },
    {
      "constant": true,
      "inputs": [
        {
          "internalType": "uint256",
          "name": "_uid",
          "type": "uint256"
        },
        {
          "internalType": "string",
          "name": "_type",
          "type": "string"
        },
        {
          "internalType": "uint256",
          "name": "i",
          "type": "uint256"
        }
      ],
      "name": "fetchProductPart3",
      "outputs": [
        {
          "internalType": "string",
          "name": "",
          "type": "string"
        },
        {
          "internalType": "address",
          "name": "",
          "type": "address"
        },
        {
          "internalType": "string",
          "name": "",
          "type": "string"
        },
        {
          "internalType": "string",
          "name": "",
          "type": "string"
        },
        {
          "internalType": "address",
          "name": "",
          "type": "address"
        },
        {
          "internalType": "string",
          "name": "",
          "type": "string"
        }
      ],
      "payable": false,
      "stateMutability": "view",
      "type": "function"
    },
    {
      "constant": true,
      "inputs": [],
      "name": "fetchProductCount",
      "outputs": [
        {
          "internalType": "uint256",
          "name": "",
          "type": "uint256"
        }
      ],
      "payable": false,
      "stateMutability": "view",
      "type": "function"
    },
    {
      "constant": true,
      "inputs": [
        {
          "internalType": "uint256",
          "name": "_uid",
          "type": "uint256"
        }
      ],
      "name": "fetchProductHistoryLength",
      "outputs": [
        {
          "internalType": "uint256",
          "name": "",
          "type": "uint256"
        }
      ],
      "payable": false,
      "stateMutability": "view",
      "type": "function"
    },
    {
      "constant": true,
      "inputs": [
        {
          "internalType": "uint256",
          "name": "_uid",
          "type": "uint256"
        }
      ],
      "name": "fetchProductState",
      "outputs": [
        {
          "internalType": "enum Structure.State",
          "name": "",
          "type": "uint8"
        }
      ],
      "payable": false,
      "stateMutability": "view",
      "type": "function"
    },
    {
      "constant": false,
      "inputs": [
        {
          "internalType": "string",
          "name": "tran",
          "type": "string"
        }
      ],
      "name": "setTransactionHashOnManufacture",
      "outputs": [],
      "payable": false,
      "stateMutability": "nonpayable",
      "type": "function"
    },
    {
      "constant": false,
      "inputs": [
        {
          "internalType": "uint256",
          "name": "_uid",
          "type": "uint256"
        },
        {
          "internalType": "string",
          "name": "tran",
          "type": "string"
        }
      ],
      "name": "setTransactionHash",
      "outputs": [],
      "payable": false,
      "stateMutability": "nonpayable",
      "type": "function"
    }
  ],
  "bytecode": "0x6080604052600280546001600160a01b031916331790556001808055600055614e768061002d6000396000f3fe608060405234801561001057600080fd5b506004361061018e5760003560e01c80638eee90ea116100de578063e55128ea11610097578063f4121b6711610071578063f4121b671461131e578063f514ce3614611344578063f61104b81461134c578063fcec18bf146113725761018e565b8063e55128ea14611255578063ee707c1e146112f9578063f16791b3146113165761018e565b80638eee90ea14610df257806398c9588914610f22578063b843bdee146111ab578063cd2885e0146111c8578063d44bebcc146111ee578063e2f1fe14146112145761018e565b80635212e5101161014b5780636f1fe8d7116101255780636f1fe8d714610b225780637217eb2e14610d0d57806372df397e14610d2a578063786ea16114610d475761018e565b80635212e51014610848578063658db4971461086e5780636cf07e2414610b055761018e565b8063024edf9a1461019357806305bafa5e146101cd5780630a036e25146106a65780633334529e146106c3578063405ba7ef146107f3578063453dd4af14610822575b600080fd5b6101b9600480360360208110156101a957600080fd5b50356001600160a01b0316611398565b604080519115158252519081900360200190f35b6106a460048036036101608110156101e457600080fd5b810190602081018135600160201b8111156101fe57600080fd5b82018360208201111561021057600080fd5b803590602001918460018302840111600160201b8311171561023157600080fd5b91908080601f0160208091040260200160405190810160405280939291908181526020018383808284376000920191909152509295949360208101935035915050600160201b81111561028357600080fd5b82018360208201111561029557600080fd5b803590602001918460018302840111600160201b831117156102b657600080fd5b91908080601f0160208091040260200160405190810160405280939291908181526020018383808284376000920191909152509295949360208101935035915050600160201b81111561030857600080fd5b82018360208201111561031a57600080fd5b803590602001918460018302840111600160201b8311171561033b57600080fd5b91908080601f0160208091040260200160405190810160405280939291908181526020018383808284376000920191909152509295949360208101935035915050600160201b81111561038d57600080fd5b82018360208201111561039f57600080fd5b803590602001918460018302840111600160201b831117156103c057600080fd5b91908080601f0160208091040260200160405190810160405280939291908181526020018383808284376000920191909152509295949360208101935035915050600160201b81111561041257600080fd5b82018360208201111561042457600080fd5b803590602001918460018302840111600160201b8311171561044557600080fd5b91908080601f0160208091040260200160405190810160405280939291908181526020018383808284376000920191909152509295949360208101935035915050600160201b81111561049757600080fd5b8201836020820111156104a957600080fd5b803590602001918460018302840111600160201b831117156104ca57600080fd5b91908080601f0160208091040260200160405190810160405280939291908181526020018383808284376000920191909152509295949360208101935035915050600160201b81111561051c57600080fd5b82018360208201111561052e57600080fd5b803590602001918460018302840111600160201b8311171561054f57600080fd5b91908080601f01602080910402602001604051908101604052809392919081815260200183838082843760009201919091525092958435959094909350604081019250602001359050600160201b8111156105a957600080fd5b8201836020820111156105bb57600080fd5b803590602001918460018302840111600160201b831117156105dc57600080fd5b91908080601f0160208091040260200160405190810160405280939291908181526020018383808284376000920191909152509295949360208101935035915050600160201b81111561062e57600080fd5b82018360208201111561064057600080fd5b803590602001918460018302840111600160201b8311171561066157600080fd5b91908080601f01602080910402602001604051908101604052809392919081815260200183838082843760009201919091525092955050913592506113d3915050565b005b6106a4600480360360208110156106bc57600080fd5b5035611a75565b6106a4600480360360608110156106d957600080fd5b81359190810190604081016020820135600160201b8111156106fa57600080fd5b82018360208201111561070c57600080fd5b803590602001918460018302840111600160201b8311171561072d57600080fd5b91908080601f0160208091040260200160405190810160405280939291908181526020018383808284376000920191909152509295949360208101935035915050600160201b81111561077f57600080fd5b82018360208201111561079157600080fd5b803590602001918460018302840111600160201b831117156107b257600080fd5b91908080601f016020809104026020016040519081016040528093929190818152602001838380828437600092019190915250929550611eb4945050505050565b6108106004803603602081101561080957600080fd5b5035612389565b60408051918252519081900360200190f35b6106a46004803603602081101561083857600080fd5b50356001600160a01b031661239b565b6106a46004803603602081101561085e57600080fd5b50356001600160a01b03166123eb565b61091b6004803603606081101561088457600080fd5b81359190810190604081016020820135600160201b8111156108a557600080fd5b8201836020820111156108b757600080fd5b803590602001918460018302840111600160201b831117156108d857600080fd5b91908080601f0160208091040260200160405190810160405280939291908181526020018383808284376000920191909152509295505091359250612437915050565b60405180898152602001888152602001876001600160a01b03166001600160a01b03168152602001866001600160a01b03166001600160a01b0316815260200180602001806020018060200180602001858103855289818151815260200191508051906020019080838360005b838110156109a0578181015183820152602001610988565b50505050905090810190601f1680156109cd5780820380516001836020036101000a031916815260200191505b5085810384528851815288516020918201918a019080838360005b83811015610a005781810151838201526020016109e8565b50505050905090810190601f168015610a2d5780820380516001836020036101000a031916815260200191505b50858103835287518152875160209182019189019080838360005b83811015610a60578181015183820152602001610a48565b50505050905090810190601f168015610a8d5780820380516001836020036101000a031916815260200191505b50858103825286518152865160209182019188019080838360005b83811015610ac0578181015183820152602001610aa8565b50505050905090810190601f168015610aed5780820380516001836020036101000a031916815260200191505b509c5050505050505050505050505060405180910390f35b6106a460048036036020811015610b1b57600080fd5b50356127d2565b610bcf60048036036060811015610b3857600080fd5b81359190810190604081016020820135600160201b811115610b5957600080fd5b820183602082011115610b6b57600080fd5b803590602001918460018302840111600160201b83111715610b8c57600080fd5b91908080601f0160208091040260200160405190810160405280939291908181526020018383808284376000920191909152509295505091359250612c6d915050565b60405180898152602001806020018060200188815260200180602001876008811115610bf757fe5b60ff168152602001866001600160a01b03166001600160a01b031681526020018060200185810385528c818151815260200191508051906020019080838360005b83811015610c50578181015183820152602001610c38565b50505050905090810190601f168015610c7d5780820380516001836020036101000a031916815260200191505b5085810384528b5181528b516020918201918d019080838360005b83811015610cb0578181015183820152602001610c98565b50505050905090810190601f168015610cdd5780820380516001836020036101000a031916815260200191505b5085810383528951815289516020918201918b019080838360008315610a60578181015183820152602001610a48565b6106a460048036036020811015610d2357600080fd5b5035612fbe565b6106a460048036036020811015610d4057600080fd5b5035613416565b6106a460048036036040811015610d5d57600080fd5b81359190810190604081016020820135600160201b811115610d7e57600080fd5b820183602082011115610d9057600080fd5b803590602001918460018302840111600160201b83111715610db157600080fd5b91908080601f016020809104026020016040519081016040528093929190818152602001838380828437600092019190915250929550613890945050505050565b6106a460048036036060811015610e0857600080fd5b81359190810190604081016020820135600160201b811115610e2957600080fd5b820183602082011115610e3b57600080fd5b803590602001918460018302840111600160201b83111715610e5c57600080fd5b91908080601f0160208091040260200160405190810160405280939291908181526020018383808284376000920191909152509295949360208101935035915050600160201b811115610eae57600080fd5b820183602082011115610ec057600080fd5b803590602001918460018302840111600160201b83111715610ee157600080fd5b91908080601f0160208091040260200160405190810160405280939291908181526020018383808284376000920191909152509295506138dc945050505050565b610fcf60048036036060811015610f3857600080fd5b81359190810190604081016020820135600160201b811115610f5957600080fd5b820183602082011115610f6b57600080fd5b803590602001918460018302840111600160201b83111715610f8c57600080fd5b91908080601f0160208091040260200160405190810160405280939291908181526020018383808284376000920191909152509295505091359250613d9b915050565b6040518080602001876001600160a01b03166001600160a01b031681526020018060200180602001866001600160a01b03166001600160a01b031681526020018060200185810385528b818151815260200191508051906020019080838360005b83811015611048578181015183820152602001611030565b50505050905090810190601f1680156110755780820380516001836020036101000a031916815260200191505b5085810384528951815289516020918201918b019080838360005b838110156110a8578181015183820152602001611090565b50505050905090810190601f1680156110d55780820380516001836020036101000a031916815260200191505b5085810383528851815288516020918201918a019080838360005b838110156111085781810151838201526020016110f0565b50505050905090810190601f1680156111355780820380516001836020036101000a031916815260200191505b50858103825286518152865160209182019188019080838360005b83811015611168578181015183820152602001611150565b50505050905090810190601f1680156111955780820380516001836020036101000a031916815260200191505b509a505050505050505050505060405180910390f35b6106a4600480360360208110156111c157600080fd5b5035614122565b6101b9600480360360208110156111de57600080fd5b50356001600160a01b0316614578565b6101b96004803603602081101561120457600080fd5b50356001600160a01b03166145b1565b6112316004803603602081101561122a57600080fd5b50356145eb565b6040518082600881111561124157fe5b60ff16815260200191505060405180910390f35b6106a46004803603602081101561126b57600080fd5b810190602081018135600160201b81111561128557600080fd5b82018360208201111561129757600080fd5b803590602001918460018302840111600160201b831117156112b857600080fd5b91908080601f01602080910402602001604051908101604052809392919081815260200183838082843760009201919091525092955061460a945050505050565b6106a46004803603602081101561130f57600080fd5b5035614657565b610810614abd565b6106a46004803603602081101561133457600080fd5b50356001600160a01b0316614ac4565b610810614b12565b6106a46004803603602081101561136257600080fd5b50356001600160a01b0316614b18565b6101b96004803603602081101561138857600080fd5b50356001600160a01b0316614b62565b60006001600160a01b0382166113ad57600080fd5b506001600160a01b03166000908152600560205260409020546301000000900460ff1690565b6113dc33614b62565b6113e557600080fd5b6000546113f0614c14565b600154602080830191909152828252608080830180519092018f9052815160409081018f905282516060018e905282519091018c905281514260a0909101523390830181905290515261144281614b96565b60006060820152611459818a8a8a8a8a8a8a614bde565b60008281526003602090815260409182902083518155908301516001820155908201516002820180546001600160a01b0319166001600160a01b03909216919091178082556060840151849392909160ff60a01b1916600160a01b8360088111156114c057fe5b0217905550608082015180516003830180546001600160a01b0319166001600160a01b0390921691909117815560208083015180516115059260048701920190614c7f565b5060408201518051611521916002840191602090910190614c7f565b506060820151805161153d916003840191602090910190614c7f565b5060808201518051611559916004840191602090910190614c7f565b5060a0918201516005919091015582015180516009830180546001600160a01b0319166001600160a01b0390921691909117815560208083015180516115a592600a8701920190614c7f565b50604082015180516115c1916002840191602090910190614c7f565b50505060c082015180518051600c8401916115e191839160200190614c7f565b5060208281015180516115fa9260018501920190614c7f565b5060408201518051611616916002840191602090910190614c7f565b50606082015160038201556080820151805161163c916004840191602090910190614c7f565b5060a08201518051611658916005840191602090910190614c7f565b5060c0820151600682015560e082015160078201556101008201518051611689916008840191602090910190614c7f565b50505060e082015180516015830180546001600160a01b0319166001600160a01b0390921691909117815560208083015180516116cc9260168701920190614c7f565b50604082015180516116e8916002840191602090910190614c7f565b5050506101008201516018820180546001600160a01b0319166001600160a01b03909216919091179055610120820151805161172e916019840191602090910190614c7f565b505050600082815260046020908152604080832080546001808201808455928652948490208651601a9092020190815592850151938301939093558301516002820180546001600160a01b0319166001600160a01b03909216919091178082556060850151859392909160ff60a01b1916600160a01b8360088111156117b057fe5b0217905550608082015180516003830180546001600160a01b0319166001600160a01b0390921691909117815560208083015180516117f59260048701920190614c7f565b5060408201518051611811916002840191602090910190614c7f565b506060820151805161182d916003840191602090910190614c7f565b5060808201518051611849916004840191602090910190614c7f565b5060a0918201516005919091015582015180516009830180546001600160a01b0319166001600160a01b03909216919091178155602080830151805161189592600a8701920190614c7f565b50604082015180516118b1916002840191602090910190614c7f565b50505060c082015180518051600c8401916118d191839160200190614c7f565b5060208281015180516118ea9260018501920190614c7f565b5060408201518051611906916002840191602090910190614c7f565b50606082015160038201556080820151805161192c916004840191602090910190614c7f565b5060a08201518051611948916005840191602090910190614c7f565b5060c0820151600682015560e082015160078201556101008201518051611979916008840191602090910190614c7f565b50505060e082015180516015830180546001600160a01b0319166001600160a01b0390921691909117815560208083015180516119bc9260168701920190614c7f565b50604082015180516119d8916002840191602090910190614c7f565b5050506101008201516018820180546001600160a01b0319166001600160a01b039092169190911790556101208201518051611a1e916019840191602090910190614c7f565b5050600180548101815560008054909101905550506040805183815290517fd29d8a68ca7c8c74be5579719d445aabfe230ed6e6a83aff475a663500eb76099181900360200190a150505050505050505050505050565b600081815260036020819052604090912001546001600160a01b0316338114611a9d57600080fd5b611aa633614b62565b611aaf57600080fd5b60008281526003602081815260408084206002808201805460ff60a01b19908116600160a11b1782556004865293872095855285546001818101808955978952959097208354601a909802019687558483015494870194909455835490860180546001600160a01b0319166001600160a01b0390921691909117808255935494959194919360ff600160a01b9384900416939192911690836008811115611b5257fe5b02179055506003828101805491830180546001600160a01b0319166001600160a01b0390931692909217825560048085018054929392611ba8928601919060026000196001831615610100020190911604614cfd565b5060028281018054611bcd928481019291600019610100600183161502011604614cfd565b5060038201816003019080546001816001161561010002031660029004611bf5929190614cfd565b5060048201816004019080546001816001161561010002031660029004611c1d929190614cfd565b506005918201549101556009828101805491830180546001600160a01b0319166001600160a01b03909316929092178255600a8085018054929392611c78928601919060026000196001831615610100020190911604614cfd565b5060028281018054611c9d928481019291600019610100600183161502011604614cfd565b505050600c82810180549091830190611ccc908290849060026000196101006001841615020190911604614cfd565b5060018201816001019080546001816001161561010002031660029004611cf4929190614cfd565b5060028281018054611d19928481019291600019610100600183161502011604614cfd565b506003820154816003015560048201816004019080546001816001161561010002031660029004611d4b929190614cfd565b5060058201816005019080546001816001161561010002031660029004611d73929190614cfd565b50600682015481600601556007820154816007015560088201816008019080546001816001161561010002031660029004611daf929190614cfd565b5050506015828101805491830180546001600160a01b0319166001600160a01b0390931692909217825560168085018054929392611e03928601919060026000196001831615610100020190911604614cfd565b5060028281018054611e28928481019291600019610100600183161502011604614cfd565b50505060188281015490820180546001600160a01b0319166001600160a01b0390921691909117905560198083018054611e78928401919060026000196001831615610100020190911604614cfd565b50506040805185815290517fe6ae062d51064ae2a5a31a72fcb1bee1d343fdc6bddc1d3dfce658ece4f032129350908190036020019150a15050565b826002600082815260036020526040902060020154600160a01b900460ff166008811115611ede57fe5b14611ee857600080fd5b6000848152600360205260409020600901546001600160a01b0316338114611f0f57600080fd5b611f1833614578565b611f2157600080fd5b60008581526003602090815260409091206002810180546001600160a01b031916331790558551611f5a92600a90920191870190614c7f565b5060008581526003602090815260409091208451611f8092600b90920191860190614c7f565b5060008581526003602081815260408084206002808201805460ff60a01b19908116600360a01b1782556004865293872095855285546001818101808955978952959097208354601a909802019687558483015494870194909455835490860180546001600160a01b0319166001600160a01b0390921691909117808255935494959194919360ff600160a01b938490041693919291169083600881111561202457fe5b02179055506003828101805491830180546001600160a01b0319166001600160a01b039093169290921782556004808501805492939261207a928601919060026000196001831615610100020190911604614cfd565b506002828101805461209f928481019291600019610100600183161502011604614cfd565b50600382018160030190805460018160011615610100020316600290046120c7929190614cfd565b50600482018160040190805460018160011615610100020316600290046120ef929190614cfd565b506005918201549101556009828101805491830180546001600160a01b0319166001600160a01b03909316929092178255600a808501805492939261214a928601919060026000196001831615610100020190911604614cfd565b506002828101805461216f928481019291600019610100600183161502011604614cfd565b505050600c8281018054909183019061219e908290849060026000196101006001841615020190911604614cfd565b50600182018160010190805460018160011615610100020316600290046121c6929190614cfd565b50600282810180546121eb928481019291600019610100600183161502011604614cfd565b50600382015481600301556004820181600401908054600181600116156101000203166002900461221d929190614cfd565b5060058201816005019080546001816001161561010002031660029004612245929190614cfd565b50600682015481600601556007820154816007015560088201816008019080546001816001161561010002031660029004612281929190614cfd565b5050506015828101805491830180546001600160a01b0319166001600160a01b03909316929092178255601680850180549293926122d5928601919060026000196001831615610100020190911604614cfd565b50600282810180546122fa928481019291600019610100600183161502011604614cfd565b50505060188281015490820180546001600160a01b0319166001600160a01b039092169190911790556019808301805461234a928401919060026000196001831615610100020190911604614cfd565b50506040805188815290517fa22971300ba7d9ca2113cf57c3238cde86a32cfba0c31a13ad86a23bde3facf29350908190036020019150a15050505050565b60009081526004602052604090205490565b6001600160a01b0381166123ae57600080fd5b6123b7816145b1565b156123c157600080fd5b6001600160a01b03166000908152600560205260409020805463ff00000019166301000000179055565b6001600160a01b0381166123fe57600080fd5b61240781614578565b1561241157600080fd5b6001600160a01b03166000908152600560205260409020805461ff001916610100179055565b60008381526003602052604081205481908190819060609081908190819061245e57600080fd5b60008b815260036020908152604091829020825180840190935260078352661c1c9bd91d58dd60ca1b928201929092528b51908c01207f36a4a183f82db747ab399ca476ab84cc3def6abe3ac63748d03b4584af38d05714156124cb575060008b81526003602052604090205b604080518082019091526007815266686973746f727960c81b6020918201528b51908c01207f5cb4ee416d23b95cd5367c15d6b361ec02394b3d48d629418b0e5e7eda67585814156125425760008c815260046020526040902080548b90811061253157fe5b90600052602060002090601a020190505b8054600180830154600280850154600386015460048701805460408051602061010099841615999099026000190190921695909504601f810188900488028201880190955284815294956001600160a01b039384169593909216939092600589019260068a019260078b0192918691908301828280156126035780601f106125d857610100808354040283529160200191612603565b820191906000526020600020905b8154815290600101906020018083116125e657829003601f168201915b5050865460408051602060026001851615610100026000190190941693909304601f8101849004840282018401909252818152959950889450925084019050828280156126915780601f1061266657610100808354040283529160200191612691565b820191906000526020600020905b81548152906001019060200180831161267457829003601f168201915b5050855460408051602060026001851615610100026000190190941693909304601f81018490048402820184019092528181529598508794509250840190508282801561271f5780601f106126f45761010080835404028352916020019161271f565b820191906000526020600020905b81548152906001019060200180831161270257829003601f168201915b5050845460408051602060026001851615610100026000190190941693909304601f8101849004840282018401909252818152959750869450925084019050828280156127ad5780601f10612782576101008083540402835291602001916127ad565b820191906000526020600020905b81548152906001019060200180831161279057829003601f168201915b5050505050905098509850985098509850985098509850509397509397509397509397565b806006600082815260036020526040902060020154600160a01b900460ff1660088111156127fc57fe5b1461280657600080fd5b6000828152600360205260409020600201546001600160a01b031633811461282d57600080fd5b6000838152600360205260409020601501546001600160a01b031633811461285457600080fd5b61285d336145b1565b61286657600080fd5b60008481526003602081815260408084206002808201805460ff60a01b19908116600760a01b1782556004865293872095855285546001818101808955978952959097208354601a909802019687558483015494870194909455835490860180546001600160a01b0319166001600160a01b0390921691909117808255935494959194919360ff600160a01b938490041693919291169083600881111561290957fe5b02179055506003828101805491830180546001600160a01b0319166001600160a01b039093169290921782556004808501805492939261295f928601919060026000196001831615610100020190911604614cfd565b5060028281018054612984928481019291600019610100600183161502011604614cfd565b50600382018160030190805460018160011615610100020316600290046129ac929190614cfd565b50600482018160040190805460018160011615610100020316600290046129d4929190614cfd565b506005918201549101556009828101805491830180546001600160a01b0319166001600160a01b03909316929092178255600a8085018054929392612a2f928601919060026000196001831615610100020190911604614cfd565b5060028281018054612a54928481019291600019610100600183161502011604614cfd565b505050600c82810180549091830190612a83908290849060026000196101006001841615020190911604614cfd565b5060018201816001019080546001816001161561010002031660029004612aab929190614cfd565b5060028281018054612ad0928481019291600019610100600183161502011604614cfd565b506003820154816003015560048201816004019080546001816001161561010002031660029004612b02929190614cfd565b5060058201816005019080546001816001161561010002031660029004612b2a929190614cfd565b50600682015481600601556007820154816007015560088201816008019080546001816001161561010002031660029004612b66929190614cfd565b5050506015828101805491830180546001600160a01b0319166001600160a01b0390931692909217825560168085018054929392612bba928601919060026000196001831615610100020190911604614cfd565b5060028281018054612bdf928481019291600019610100600183161502011604614cfd565b50505060188281015490820180546001600160a01b0319166001600160a01b0390921691909117905560198083018054612c2f928401919060026000196001831615610100020190911604614cfd565b50506040805187815290517f9a96442e96ac96ba57e48273f290bf3bb9c6b0b2c86843cc4bf2353119918fdf9350908190036020019150a150505050565b600083815260036020526040812054606090819083908290829081908390612c9457600080fd5b60008b815260036020908152604091829020825180840190935260078352661c1c9bd91d58dd60ca1b928201929092528b51908c01207f36a4a183f82db747ab399ca476ab84cc3def6abe3ac63748d03b4584af38d0571415612d01575060008b81526003602052604090205b604080518082019091526007815266686973746f727960c81b6020918201528b51908c01207f5cb4ee416d23b95cd5367c15d6b361ec02394b3d48d629418b0e5e7eda6758581415612d785760008c815260046020526040902080548b908110612d6757fe5b90600052602060002090601a020190505b600881015460138201546002808401546009850154600c860180546040805160206101006001851615026000190190931696909604601f81018390048302870183019091528086529195600e890195909460148a0194600160a01b90910460ff16936001600160a01b0390911692600a8b0192918991830182828015612e3f5780601f10612e1457610100808354040283529160200191612e3f565b820191906000526020600020905b815481529060010190602001808311612e2257829003601f168201915b5050895460408051602060026001851615610100026000190190941693909304601f8101849004840282018401909252818152959c508b945092508401905082828015612ecd5780601f10612ea257610100808354040283529160200191612ecd565b820191906000526020600020905b815481529060010190602001808311612eb057829003601f168201915b5050875460408051602060026001851615610100026000190190941693909304601f8101849004840282018401909252818152959b5089945092508401905082828015612f5b5780601f10612f3057610100808354040283529160200191612f5b565b820191906000526020600020905b815481529060010190602001808311612f3e57829003601f168201915b5050845460408051602060026001851615610100026000190190941693909304601f8101849004840282018401909252818152959950869450925084019050828280156127ad5780601f10612782576101008083540402835291602001916127ad565b806003600082815260036020526040902060020154600160a01b900460ff166008811115612fe857fe5b14612ff257600080fd5b612ffb33611398565b61300457600080fd5b60008281526003602081815260408084206018810180546001600160a01b031990811633179091556002808301805460ff60a01b19908116600160a21b1782556004875294882096865286546001818101808a55988a52969098208454601a909902019788558584015495880195909555845490870180549092166001600160a01b0390911617808255935494959194919360ff600160a01b93849004169391929116908360088111156130b457fe5b02179055506003828101805491830180546001600160a01b0319166001600160a01b039093169290921782556004808501805492939261310a928601919060026000196001831615610100020190911604614cfd565b506002828101805461312f928481019291600019610100600183161502011604614cfd565b5060038201816003019080546001816001161561010002031660029004613157929190614cfd565b506004820181600401908054600181600116156101000203166002900461317f929190614cfd565b506005918201549101556009828101805491830180546001600160a01b0319166001600160a01b03909316929092178255600a80850180549293926131da928601919060026000196001831615610100020190911604614cfd565b50600282810180546131ff928481019291600019610100600183161502011604614cfd565b505050600c8281018054909183019061322e908290849060026000196101006001841615020190911604614cfd565b5060018201816001019080546001816001161561010002031660029004613256929190614cfd565b506002828101805461327b928481019291600019610100600183161502011604614cfd565b5060038201548160030155600482018160040190805460018160011615610100020316600290046132ad929190614cfd565b50600582018160050190805460018160011615610100020316600290046132d5929190614cfd565b50600682015481600601556007820154816007015560088201816008019080546001816001161561010002031660029004613311929190614cfd565b5050506015828101805491830180546001600160a01b0319166001600160a01b0390931692909217825560168085018054929392613365928601919060026000196001831615610100020190911604614cfd565b506002828101805461338a928481019291600019610100600183161502011604614cfd565b50505060188281015490820180546001600160a01b0319166001600160a01b03909216919091179055601980830180546133da928401919060026000196001831615610100020190911604614cfd565b50506040805185815290517ffd054e59d299873fab61a3c67d86d3a139b75dcd5cd82894d8983fc5e2669c829350908190036020019150a15050565b806007600082815260036020526040902060020154600160a01b900460ff16600881111561344057fe5b1461344a57600080fd5b6000828152600360205260409020601801546001600160a01b031633811461347157600080fd5b61347a33611398565b61348357600080fd5b6000838152600360208181526040808420600280820180546001600160a01b0319908116331760ff60a01b19908116600160a31b1783556004875294882096865286546001818101808a55988a52969098208454601a909902019788558584015495880195909555805491870180549095166001600160a01b0390921691909117808555905494959194919360ff600160a01b938490041693909291169083600881111561352d57fe5b02179055506003828101805491830180546001600160a01b0319166001600160a01b0390931692909217825560048085018054929392613583928601919060026000196001831615610100020190911604614cfd565b50600282810180546135a8928481019291600019610100600183161502011604614cfd565b50600382018160030190805460018160011615610100020316600290046135d0929190614cfd565b50600482018160040190805460018160011615610100020316600290046135f8929190614cfd565b506005918201549101556009828101805491830180546001600160a01b0319166001600160a01b03909316929092178255600a8085018054929392613653928601919060026000196001831615610100020190911604614cfd565b5060028281018054613678928481019291600019610100600183161502011604614cfd565b505050600c828101805490918301906136a7908290849060026000196101006001841615020190911604614cfd565b50600182018160010190805460018160011615610100020316600290046136cf929190614cfd565b50600282810180546136f4928481019291600019610100600183161502011604614cfd565b506003820154816003015560048201816004019080546001816001161561010002031660029004613726929190614cfd565b506005820181600501908054600181600116156101000203166002900461374e929190614cfd565b5060068201548160060155600782015481600701556008820181600801908054600181600116156101000203166002900461378a929190614cfd565b5050506015828101805491830180546001600160a01b0319166001600160a01b03909316929092178255601680850180549293926137de928601919060026000196001831615610100020190911604614cfd565b5060028281018054613803928481019291600019610100600183161502011604614cfd565b50505060188281015490820180546001600160a01b0319166001600160a01b0390921691909117905560198083018054613853928401919060026000196001831615610100020190911604614cfd565b50506040805186815290517f8a746d5b91a9a334d1abbeee7d031aac6d5c59ea6e982ac06aef4346cce5749e9350908190036020019150a1505050565b6000828152600460205260408120805460001981019081106138ae57fe5b90600052602060002090601a02019050818160190190805190602001906138d6929190614c7f565b50505050565b826005600082815260036020526040902060020154600160a01b900460ff16600881111561390657fe5b1461391057600080fd5b613919336145b1565b61392257600080fd5b6000848152600360209081526040909120600281018054336001600160a01b031991821681179092556015830180549091169091179055845161396d92601690920191860190614c7f565b506000848152600360209081526040909120835161399392601790920191850190614c7f565b5060008481526003602081815260408084206002808201805460ff60a01b19908116600360a11b1782556004865293872095855285546001818101808955978952959097208354601a909802019687558483015494870194909455835490860180546001600160a01b0319166001600160a01b0390921691909117808255935494959194919360ff600160a01b9384900416939192911690836008811115613a3757fe5b02179055506003828101805491830180546001600160a01b0319166001600160a01b0390931692909217825560048085018054929392613a8d928601919060026000196001831615610100020190911604614cfd565b5060028281018054613ab2928481019291600019610100600183161502011604614cfd565b5060038201816003019080546001816001161561010002031660029004613ada929190614cfd565b5060048201816004019080546001816001161561010002031660029004613b02929190614cfd565b506005918201549101556009828101805491830180546001600160a01b0319166001600160a01b03909316929092178255600a8085018054929392613b5d928601919060026000196001831615610100020190911604614cfd565b5060028281018054613b82928481019291600019610100600183161502011604614cfd565b505050600c82810180549091830190613bb1908290849060026000196101006001841615020190911604614cfd565b5060018201816001019080546001816001161561010002031660029004613bd9929190614cfd565b5060028281018054613bfe928481019291600019610100600183161502011604614cfd565b506003820154816003015560048201816004019080546001816001161561010002031660029004613c30929190614cfd565b5060058201816005019080546001816001161561010002031660029004613c58929190614cfd565b50600682015481600601556007820154816007015560088201816008019080546001816001161561010002031660029004613c94929190614cfd565b5050506015828101805491830180546001600160a01b0319166001600160a01b0390931692909217825560168085018054929392613ce8928601919060026000196001831615610100020190911604614cfd565b5060028281018054613d0d928481019291600019610100600183161502011604614cfd565b50505060188281015490820180546001600160a01b0319166001600160a01b0390921691909117905560198083018054613d5d928401919060026000196001831615610100020190911604614cfd565b50506040805187815290517fb6589947d486bf61c31a4e6d2e81d4d2c93e7832fdda27f2492009b4755c29ed9350908190036020019150a150505050565b600083815260036020526040812054606091908290819083908290613dbf57600080fd5b600089815260036020908152604091829020825180840190935260078352661c1c9bd91d58dd60ca1b928201929092528951908a01207f36a4a183f82db747ab399ca476ab84cc3def6abe3ac63748d03b4584af38d0571415613e2c575060008981526003602052604090205b604080518082019091526007815266686973746f727960c81b6020918201528951908a01207f5cb4ee416d23b95cd5367c15d6b361ec02394b3d48d629418b0e5e7eda6758581415613ea35760008a8152600460205260409020805489908110613e9257fe5b90600052602060002090601a020190505b60158101546018820154600b8301805460408051602060026101006001861615026000190190941693909304601f810184900484028201840190925281815292946001600160a01b03908116946016880194601789019492909116926019890192889190830182828015613f585780601f10613f2d57610100808354040283529160200191613f58565b820191906000526020600020905b815481529060010190602001808311613f3b57829003601f168201915b5050875460408051602060026001851615610100026000190190941693909304601f8101849004840282018401909252818152959b5089945092508401905082828015613fe65780601f10613fbb57610100808354040283529160200191613fe6565b820191906000526020600020905b815481529060010190602001808311613fc957829003601f168201915b5050865460408051602060026001851615610100026000190190941693909304601f8101849004840282018401909252818152959950889450925084019050828280156140745780601f1061404957610100808354040283529160200191614074565b820191906000526020600020905b81548152906001019060200180831161405757829003601f168201915b5050845460408051602060026001851615610100026000190190941693909304601f8101849004840282018401909252818152959850869450925084019050828280156141025780601f106140d757610100808354040283529160200191614102565b820191906000526020600020905b8154815290600101906020018083116140e557829003601f168201915b505050505090509650965096509650965096505093975093979195509350565b8060008082815260036020526040902060020154600160a01b900460ff16600881111561414b57fe5b1461415557600080fd5b61415e33614578565b61416757600080fd5b6000828152600360208181526040808420600981018054336001600160a01b03199182161790915560028083018054600160a01b60ff60a01b19918216811783556004885295892097875287546001818101808b55998b52979099208554601a909a02019889558685015496890196909655805491880180546001600160a01b03909316929093169190911780835590549596929592949284900460ff16939192169083600881111561421657fe5b02179055506003828101805491830180546001600160a01b0319166001600160a01b039093169290921782556004808501805492939261426c928601919060026000196001831615610100020190911604614cfd565b5060028281018054614291928481019291600019610100600183161502011604614cfd565b50600382018160030190805460018160011615610100020316600290046142b9929190614cfd565b50600482018160040190805460018160011615610100020316600290046142e1929190614cfd565b506005918201549101556009828101805491830180546001600160a01b0319166001600160a01b03909316929092178255600a808501805492939261433c928601919060026000196001831615610100020190911604614cfd565b5060028281018054614361928481019291600019610100600183161502011604614cfd565b505050600c82810180549091830190614390908290849060026000196101006001841615020190911604614cfd565b50600182018160010190805460018160011615610100020316600290046143b8929190614cfd565b50600282810180546143dd928481019291600019610100600183161502011604614cfd565b50600382015481600301556004820181600401908054600181600116156101000203166002900461440f929190614cfd565b5060058201816005019080546001816001161561010002031660029004614437929190614cfd565b50600682015481600601556007820154816007015560088201816008019080546001816001161561010002031660029004614473929190614cfd565b5050506015828101805491830180546001600160a01b0319166001600160a01b03909316929092178255601680850180549293926144c7928601919060026000196001831615610100020190911604614cfd565b50600282810180546144ec928481019291600019610100600183161502011604614cfd565b50505060188281015490820180546001600160a01b0319166001600160a01b039092169190911790556019808301805461453c928401919060026000196001831615610100020190911604614cfd565b50506040805185815290517f112c8adc962c1de46b0ae9499cd428dc90feb4c13a4df0c69d7e5e27ab34ae879350908190036020019150a15050565b60006001600160a01b03821661458d57600080fd5b506001600160a01b0316600090815260056020526040902054610100900460ff1690565b60006001600160a01b0382166145c657600080fd5b506001600160a01b031660009081526005602052604090205462010000900460ff1690565b600090815260036020526040902060020154600160a01b900460ff1690565b6000805460001990810182526004602052604090912080548392810190811061462f57fe5b90600052602060002090601a02016019019080519060200190614653929190614c7f565b5050565b6000818152600360205260409020600201546001600160a01b031633811461467e57600080fd5b6000828152600360205260409020600901546001600160a01b03163381146146a557600080fd5b6146ae33614578565b6146b757600080fd5b60008381526003602081815260408084206002808201805460ff60a01b19908116600560a01b1782556004865293872095855285546001818101808955978952959097208354601a909802019687558483015494870194909455835490860180546001600160a01b0319166001600160a01b0390921691909117808255935494959194919360ff600160a01b938490041693919291169083600881111561475a57fe5b02179055506003828101805491830180546001600160a01b0319166001600160a01b03909316929092178255600480850180549293926147b0928601919060026000196001831615610100020190911604614cfd565b50600282810180546147d5928481019291600019610100600183161502011604614cfd565b50600382018160030190805460018160011615610100020316600290046147fd929190614cfd565b5060048201816004019080546001816001161561010002031660029004614825929190614cfd565b506005918201549101556009828101805491830180546001600160a01b0319166001600160a01b03909316929092178255600a8085018054929392614880928601919060026000196001831615610100020190911604614cfd565b50600282810180546148a5928481019291600019610100600183161502011604614cfd565b505050600c828101805490918301906148d4908290849060026000196101006001841615020190911604614cfd565b50600182018160010190805460018160011615610100020316600290046148fc929190614cfd565b5060028281018054614921928481019291600019610100600183161502011604614cfd565b506003820154816003015560048201816004019080546001816001161561010002031660029004614953929190614cfd565b506005820181600501908054600181600116156101000203166002900461497b929190614cfd565b506006820154816006015560078201548160070155600882018160080190805460018160011615610100020316600290046149b7929190614cfd565b5050506015828101805491830180546001600160a01b0319166001600160a01b0390931692909217825560168085018054929392614a0b928601919060026000196001831615610100020190911604614cfd565b5060028281018054614a30928481019291600019610100600183161502011604614cfd565b50505060188281015490820180546001600160a01b0319166001600160a01b0390921691909117905560198083018054614a80928401919060026000196001831615610100020190911604614cfd565b50506040805186815290517ff2452d569e5bc407d222a6bcad7d4bb8bac5fae64ce52fa183bd77e34e0cc1479350908190036020019150a1505050565b6000545b90565b6001600160a01b038116614ad757600080fd5b614ae0816145b1565b15614aea57600080fd5b6001600160a01b03166000908152600560205260409020805462ff0000191662010000179055565b60005481565b6001600160a01b038116614b2b57600080fd5b614b3481614b62565b15614b3e57600080fd5b6001600160a01b03166000908152600560205260409020805460ff19166001179055565b60006001600160a01b038216614b7757600080fd5b506001600160a01b031660009081526005602052604090205460ff1690565b60a0810180516000908190528151606060209182018190529251604090810184905260e085018051849052805190920184905290510182905261010083015261012090910152565b60c0909701805196909652855160200194909452845160400192909252835160600152825160800152815160a001525160e00152565b60408051610140810182526000808252602082018190529181018290529060608201908152602001614c44614d72565b8152602001614c51614db1565b8152602001614c5e614ddb565b8152602001614c6b614db1565b815260006020820152606060409091015290565b828054600181600116156101000203166002900490600052602060002090601f016020900481019282601f10614cc057805160ff1916838001178555614ced565b82800160010185558215614ced579182015b82811115614ced578251825591602001919060010190614cd2565b50614cf9929150614e27565b5090565b828054600181600116156101000203166002900490600052602060002090601f016020900481019282601f10614d365780548555614ced565b82800160010185558215614ced57600052602060002091601f016020900482015b82811115614ced578254825591600101919060010190614d57565b6040518060c0016040528060006001600160a01b0316815260200160608152602001606081526020016060815260200160608152602001600081525090565b604051806060016040528060006001600160a01b0316815260200160608152602001606081525090565b6040518061012001604052806060815260200160608152602001606081526020016000815260200160608152602001606081526020016000815260200160008152602001606081525090565b614ac191905b80821115614cf95760008155600101614e2d56fea265627a7a72315820121c25fb3878b7b5a19df86388374d0d35b281ed0b6c1e93584ad0bbad67651d64736f6c63430005100032",
  "source": "// SPDX-License-Identifier: MIT\r\npragma solidity >=0.4.21 <0.9.0;\r\n\r\nimport \"./Structure.sol\";\r\n\r\ncontract SupplyChain {\r\n    event FarmerAdded(address indexed _account);\r\n\r\n    //product code\r\n    uint256 public uid;\r\n    uint256 sku;\r\n\r\n    address owner;\r\n\r\n    mapping(uint256 => Structure.Product) products;\r\n    mapping(uint256 => Structure.ProductHistory) productHistory;\r\n    mapping(address => Structure.Roles) roles;\r\n\r\n    function hasFarmerRole(address _account) public view returns (bool) {\r\n        require(_account != address(0));\r\n        return roles[_account].Farmer;\r\n    }\r\n\r\n    function addFarmerRole(address _account) public {\r\n        require(_account != address(0));\r\n        require(!hasFarmerRole(_account));\r\n\r\n        roles[_account].Farmer = true;\r\n    }\r\n\r\n    function hasThirdPartyRole(address _account) public view returns (bool) {\r\n        require(_account != address(0));\r\n        return roles[_account].ThirdParty;\r\n    }\r\n\r\n    function addThirdPartyRole(address _account) public {\r\n        require(_account != address(0));\r\n        require(!hasThirdPartyRole(_account));\r\n\r\n        roles[_account].ThirdParty = true;\r\n    }\r\n\r\n    function hasDeliveryHubRole(address _account) public view returns (bool) {\r\n        require(_account != address(0));\r\n        return roles[_account].DeliveryHub;\r\n    }\r\n\r\n    function addDeliveryHubRole(address _account) public {\r\n        require(_account != address(0));\r\n        require(!hasDeliveryHubRole(_account));\r\n\r\n        roles[_account].DeliveryHub = true;\r\n    }\r\n\r\n    function hasCustomerRole(address _account) public view returns (bool) {\r\n        require(_account != address(0));\r\n        return roles[_account].Customer;\r\n    }\r\n\r\n    function addCustomerRole(address _account) public {\r\n        require(_account != address(0));\r\n        require(!hasDeliveryHubRole(_account));\r\n\r\n        roles[_account].Customer = true;\r\n    }\r\n\r\n    constructor() public payable {\r\n        owner = msg.sender;\r\n        sku = 1;\r\n        uid = 1;\r\n    }\r\n\r\n    event Manufactured(uint256 uid);\r\n    event PurchasedByThirdParty(uint256 uid);\r\n    event ShippedByFarmer(uint256 uid);\r\n    event ReceivedByThirdParty(uint256 uid);\r\n    event PurchasedByCustomer(uint256 uid);\r\n    event ShippedByThirdParty(uint256 uid);\r\n    event ReceivedByDeliveryHub(uint256 uid);\r\n    event ShippedByDeliveryHub(uint256 uid);\r\n    event ReceivedByCustomer(uint256 uid);\r\n\r\n    modifier verifyAddress(address add) {\r\n        require(msg.sender == add);\r\n        _;\r\n    }\r\n\r\n    modifier manufactured(uint256 _uid) {\r\n        require(products[_uid].productState == Structure.State.Manufactured);\r\n        _;\r\n    }\r\n\r\n    modifier shippedByFarmer(uint256 _uid) {\r\n        require(\r\n            products[_uid].productState == Structure.State.ShippedByFarmer\r\n        );\r\n        _;\r\n    }\r\n\r\n    modifier receivedByThirdParty(uint256 _uid) {\r\n        require(\r\n            products[_uid].productState == Structure.State.ReceivedByThirdParty\r\n        );\r\n        _;\r\n    }\r\n\r\n    modifier purchasedByCustomer(uint256 _uid) {\r\n        require(\r\n            products[_uid].productState == Structure.State.PurchasedByCustomer\r\n        );\r\n        _;\r\n    }\r\n\r\n    modifier shippedByThirdParty(uint256 _uid) {\r\n        require(\r\n            products[_uid].productState == Structure.State.ShippedByThirdParty\r\n        );\r\n        _;\r\n    }\r\n\r\n    modifier receivedByDeliveryHub(uint256 _uid) {\r\n        require(\r\n            products[_uid].productState == Structure.State.ReceivedByDeliveryHub\r\n        );\r\n        _;\r\n    }\r\n\r\n    modifier shippedByDeliveryHub(uint256 _uid) {\r\n        require(\r\n            products[_uid].productState == Structure.State.ShippedByDeliveryHub\r\n        );\r\n        _;\r\n    }\r\n\r\n    modifier receivedByCustomer(uint256 _uid) {\r\n        require(\r\n            products[_uid].productState == Structure.State.ReceivedByCustomer\r\n        );\r\n        _;\r\n    }\r\n\r\n    function manufactureEmptyInitialize(Structure.Product memory product)\r\n        internal\r\n        pure\r\n    {\r\n        address thirdParty;\r\n        string memory transaction;\r\n        string memory thirdPartyLongitude;\r\n        string memory thirdPartyLatitude;\r\n\r\n        address deliveryHub;\r\n        string memory deliveryHubLongitude;\r\n        string memory deliveryHubLatitude;\r\n        address customer;\r\n\r\n        product.thirdparty.thirdParty = thirdParty;\r\n        product.thirdparty.thirdPartyLongitude = thirdPartyLongitude;\r\n        product.thirdparty.thirdPartyLatitude = thirdPartyLatitude;\r\n\r\n        product.deliveryhub.deliveryHub = deliveryHub;\r\n        product.deliveryhub.deliveryHubLongitude = deliveryHubLongitude;\r\n        product.deliveryhub.deliveryHubLatitude = deliveryHubLatitude;\r\n\r\n        product.customer = customer;\r\n        product.transaction = transaction;\r\n    }\r\n\r\n    function manufactureProductInitialize(\r\n        Structure.Product memory product,\r\n        string memory productType,\r\n        string memory SlaughterHouse,\r\n        string memory AverageWeight,\r\n        uint256 Age,\r\n        string memory CarcassWeight,\r\n        string memory VetId,\r\n            uint256 productPrice\r\n    ) internal pure {\r\n        product.productdet.productType = productType;\r\n        product.productdet.SlaughterHouse = SlaughterHouse;\r\n        product.productdet.AverageWeight = AverageWeight;\r\n        product.productdet.Age=Age;\r\n        product.productdet.CarcassWeight=CarcassWeight;\r\n        product.productdet.VetId=VetId;\r\n        // product.productdet.productCode = productCode;\r\n        product.productdet.productPrice = productPrice;\r\n        //product.productdet.productCategory = productCategory;\r\n    }\r\n\r\n    ///@dev STEP 1 : Manufactured a product.\r\n    function manufactureProduct(\r\n        string memory farmerName,\r\n        string memory farmerDetails,\r\n        string memory farmerLongitude,\r\n        string memory farmerLatitude,\r\n        string memory productType,\r\n        string memory SlaughterHouse,\r\n        string memory AverageWeight,\r\n        uint256 Age,\r\n        string memory CarcassWeight,\r\n        string memory VetId,\r\n        //uint256 productCode,\r\n        uint256 productPrice\r\n        //string memory productCategory\r\n    ) public {\r\n        require(hasFarmerRole(msg.sender));\r\n        uint256 _uid = uid;\r\n        Structure.Product memory product;\r\n        product.sku = sku;\r\n        product.uid = _uid;\r\n        product.farmer.farmerName = farmerName;\r\n        product.farmer.farmerDetails = farmerDetails;\r\n        product.farmer.farmerLongitude = farmerLongitude;\r\n        product.farmer.farmerLatitude = farmerLatitude;\r\n        product.farmer.manufacturedDate = block.timestamp;\r\n\r\n        product.owner = msg.sender;\r\n        product.farmer.farmer = msg.sender;\r\n\r\n        manufactureEmptyInitialize(product);\r\n\r\n        product.productState = Structure.State.Manufactured;\r\n\r\n        manufactureProductInitialize(\r\n            product,\r\n            productType,\r\n            SlaughterHouse,\r\n            AverageWeight,\r\n            Age,\r\n            CarcassWeight,\r\n            VetId,\r\n            //productCode,\r\n            productPrice\r\n            //productCategory\r\n        );\r\n\r\n        products[_uid] = product;\r\n\r\n        productHistory[_uid].history.push(product);\r\n\r\n        sku++;\r\n        uid = uid + 1;\r\n\r\n        emit Manufactured(_uid);\r\n    }\r\n\r\n    ///@dev STEP 2 : Purchase of manufactured product by Third Party.\r\n    function purchaseByThirdParty(uint256 _uid) public manufactured(_uid) {\r\n        require(hasThirdPartyRole(msg.sender));\r\n        products[_uid].thirdparty.thirdParty = msg.sender;\r\n        products[_uid].productState = Structure.State.PurchasedByThirdParty;\r\n        productHistory[_uid].history.push(products[_uid]);\r\n\r\n        emit PurchasedByThirdParty(_uid);\r\n    }\r\n\r\n    ///@dev STEP 3 : Shipping of purchased product to Third Party.\r\n    function shipToThirdParty(uint256 _uid)\r\n        public\r\n        verifyAddress(products[_uid].farmer.farmer)\r\n    {\r\n        require(hasFarmerRole(msg.sender));\r\n        products[_uid].productState = Structure.State.ShippedByFarmer;\r\n        productHistory[_uid].history.push(products[_uid]);\r\n\r\n        emit ShippedByFarmer(_uid);\r\n    }\r\n\r\n    ///@dev STEP 4 : Received the purchased product shipped by Farmer.\r\n    function receiveByThirdParty(\r\n        uint256 _uid,\r\n        string memory thirdPartyLongitude,\r\n        string memory thirdPartyLatitude\r\n    )\r\n        public\r\n        shippedByFarmer(_uid)\r\n        verifyAddress(products[_uid].thirdparty.thirdParty)\r\n    {\r\n        require(hasThirdPartyRole(msg.sender));\r\n        products[_uid].owner = msg.sender;\r\n        products[_uid].thirdparty.thirdPartyLongitude = thirdPartyLongitude;\r\n        products[_uid].thirdparty.thirdPartyLatitude = thirdPartyLatitude;\r\n        products[_uid].productState = Structure.State.ReceivedByThirdParty;\r\n        productHistory[_uid].history.push(products[_uid]);\r\n\r\n        emit ReceivedByThirdParty(_uid);\r\n    }\r\n\r\n    ///@dev STEP 5 : Purchase of a product at third party by Customer.\r\n    function purchaseByCustomer(uint256 _uid)\r\n        public\r\n        receivedByThirdParty(_uid)\r\n    {\r\n        require(hasCustomerRole(msg.sender));\r\n        products[_uid].customer = msg.sender;\r\n        products[_uid].productState = Structure.State.PurchasedByCustomer;\r\n        productHistory[_uid].history.push(products[_uid]);\r\n\r\n        emit PurchasedByCustomer(_uid);\r\n    }\r\n\r\n    ///@dev STEP 7 : Shipping of product by third party purchased by customer.\r\n    function shipByThirdParty(uint256 _uid)\r\n        public\r\n        verifyAddress(products[_uid].owner)\r\n        verifyAddress(products[_uid].thirdparty.thirdParty)\r\n    {\r\n        require(hasThirdPartyRole(msg.sender));\r\n        products[_uid].productState = Structure.State.ShippedByThirdParty;\r\n        productHistory[_uid].history.push(products[_uid]);\r\n\r\n        emit ShippedByThirdParty(_uid);\r\n    }\r\n\r\n    ///@dev STEP 8 : Receiveing of product by delivery hub purchased by customer.\r\n    function receiveByDeliveryHub(\r\n        uint256 _uid,\r\n        string memory deliveryHubLongitude,\r\n        string memory deliveryHubLatitude\r\n    ) public shippedByThirdParty(_uid) {\r\n        require(hasDeliveryHubRole(msg.sender));\r\n        products[_uid].owner = msg.sender;\r\n        products[_uid].deliveryhub.deliveryHub = msg.sender;\r\n        products[_uid].deliveryhub.deliveryHubLongitude = deliveryHubLongitude;\r\n        products[_uid].deliveryhub.deliveryHubLatitude = deliveryHubLatitude;\r\n        products[_uid].productState = Structure.State.ReceivedByDeliveryHub;\r\n        productHistory[_uid].history.push(products[_uid]);\r\n\r\n        emit ReceivedByDeliveryHub(_uid);\r\n    }\r\n\r\n    ///@dev STEP 9 : Shipping of product by delivery hub purchased by customer.\r\n    function shipByDeliveryHub(uint256 _uid)\r\n        public\r\n        receivedByDeliveryHub(_uid)\r\n        verifyAddress(products[_uid].owner)\r\n        verifyAddress(products[_uid].deliveryhub.deliveryHub)\r\n    {\r\n        require(hasDeliveryHubRole(msg.sender));\r\n        products[_uid].productState = Structure.State.ShippedByDeliveryHub;\r\n        productHistory[_uid].history.push(products[_uid]);\r\n\r\n        emit ShippedByDeliveryHub(_uid);\r\n    }\r\n\r\n    ///@dev STEP 10 : Shipping of product by delivery hub purchased by customer.\r\n    function receiveByCustomer(uint256 _uid)\r\n        public\r\n        shippedByDeliveryHub(_uid)\r\n        verifyAddress(products[_uid].customer)\r\n    {\r\n        require(hasCustomerRole(msg.sender));\r\n        products[_uid].owner = msg.sender;\r\n        products[_uid].productState = Structure.State.ReceivedByCustomer;\r\n        productHistory[_uid].history.push(products[_uid]);\r\n\r\n        emit ReceivedByCustomer(_uid);\r\n    }\r\n\r\n    ///@dev Fetch product\r\n    function fetchProductPart1(\r\n        uint256 _uid,\r\n        string memory _type,\r\n        uint256 i\r\n    )\r\n        public\r\n        view\r\n        returns (\r\n            uint256,\r\n            uint256,\r\n            address,\r\n            address,\r\n            string memory,\r\n            string memory,\r\n            string memory,\r\n            string memory\r\n        )\r\n    {\r\n        require(products[_uid].uid != 0);\r\n        Structure.Product storage product = products[_uid];\r\n        if (keccak256(bytes(_type)) == keccak256(bytes(\"product\"))) {\r\n            product = products[_uid];\r\n        }\r\n        if (keccak256(bytes(_type)) == keccak256(bytes(\"history\"))) {\r\n            product = productHistory[_uid].history[i];\r\n        }\r\n        return (\r\n            product.uid,\r\n            product.sku,\r\n            product.owner,\r\n            product.farmer.farmer,\r\n            product.farmer.farmerName,\r\n            product.farmer.farmerDetails,\r\n            product.farmer.farmerLongitude,\r\n            product.farmer.farmerLatitude\r\n        );\r\n    }\r\n\r\n    ///@dev Fetch product\r\n    function fetchProductPart2(\r\n        uint256 _uid,\r\n        string memory _type,\r\n        uint256 i\r\n    )\r\n        public\r\n        view\r\n        returns (\r\n            uint256,\r\n            string memory,\r\n            string memory,\r\n            uint256,\r\n            string memory,\r\n            Structure.State,\r\n            address,\r\n            string memory\r\n        )\r\n    {\r\n        require(products[_uid].uid != 0);\r\n        Structure.Product storage product = products[_uid];\r\n        if (keccak256(bytes(_type)) == keccak256(bytes(\"product\"))) {\r\n            product = products[_uid];\r\n        }\r\n        if (keccak256(bytes(_type)) == keccak256(bytes(\"history\"))) {\r\n            product = productHistory[_uid].history[i];\r\n        }\r\n        return (\r\n            product.farmer.manufacturedDate,\r\n            product.productdet.productType,\r\n            product.productdet.AverageWeight,\r\n            product.productdet.productPrice,\r\n            product.productdet.productCategory,\r\n            product.productState,\r\n            product.thirdparty.thirdParty,\r\n            product.thirdparty.thirdPartyLongitude\r\n        );\r\n    }\r\n\r\n    function fetchProductPart3(\r\n        uint256 _uid,\r\n        string memory _type,\r\n        uint256 i\r\n    )\r\n        public\r\n        view\r\n        returns (\r\n            string memory,\r\n            address,\r\n            string memory,\r\n            string memory,\r\n            address,\r\n            string memory\r\n        )\r\n    {\r\n        require(products[_uid].uid != 0);\r\n        Structure.Product storage product = products[_uid];\r\n        if (keccak256(bytes(_type)) == keccak256(bytes(\"product\"))) {\r\n            product = products[_uid];\r\n        }\r\n        if (keccak256(bytes(_type)) == keccak256(bytes(\"history\"))) {\r\n            product = productHistory[_uid].history[i];\r\n        }\r\n        return (\r\n            product.thirdparty.thirdPartyLatitude,\r\n            product.deliveryhub.deliveryHub,\r\n            product.deliveryhub.deliveryHubLongitude,\r\n            product.deliveryhub.deliveryHubLatitude,\r\n            product.customer,\r\n            product.transaction\r\n        );\r\n    }\r\n\r\n    function fetchProductCount() public view returns (uint256) {\r\n        return uid;\r\n    }\r\n\r\n    function fetchProductHistoryLength(uint256 _uid)\r\n        public\r\n        view\r\n        returns (uint256)\r\n    {\r\n        return productHistory[_uid].history.length;\r\n    }\r\n\r\n    function fetchProductState(uint256 _uid)\r\n        public\r\n        view\r\n        returns (Structure.State)\r\n    {\r\n        return products[_uid].productState;\r\n    }\r\n\r\n    function setTransactionHashOnManufacture(string memory tran) public {\r\n        productHistory[uid - 1].history[\r\n            productHistory[uid - 1].history.length - 1\r\n        ]\r\n            .transaction = tran;\r\n    }\r\n\r\n    function setTransactionHash(uint256 _uid, string memory tran) public {\r\n        Structure.Product storage p =\r\n            productHistory[_uid].history[\r\n                productHistory[_uid].history.length - 1\r\n            ];\r\n        p.transaction = tran;\r\n    }\r\n}\r\n",
  "sourcePath": "C:\\Users\\Jane\\Desktop\\meatvaluechain\\contracts\\SupplyChain.sol",
  "compiler": {
    "name": "solc",
    "version": "0.5.16+commit.9c3226ce.Emscripten.clang"
  },
  "schemaVersion": "3.4.10",
  "updatedAt": "2022-11-28T07:50:31.112Z",
  "devdoc": {
    "methods": {
      "fetchProductPart1(uint256,string,uint256)": {
        "details": "Fetch product"
      },
      "fetchProductPart2(uint256,string,uint256)": {
        "details": "Fetch product"
      },
      "manufactureProduct(string,string,string,string,string,string,string,uint256,string,string,uint256)": {
        "details": "STEP 1 : Manufactured a product."
      },
      "purchaseByCustomer(uint256)": {
        "details": "STEP 5 : Purchase of a product at third party by Customer."
      },
      "purchaseByThirdParty(uint256)": {
        "details": "STEP 2 : Purchase of manufactured product by Third Party."
      },
      "receiveByCustomer(uint256)": {
        "details": "STEP 10 : Shipping of product by delivery hub purchased by customer."
      },
      "receiveByDeliveryHub(uint256,string,string)": {
        "details": "STEP 8 : Receiveing of product by delivery hub purchased by customer."
      },
      "receiveByThirdParty(uint256,string,string)": {
        "details": "STEP 4 : Received the purchased product shipped by Farmer."
      },
      "shipByDeliveryHub(uint256)": {
        "details": "STEP 9 : Shipping of product by delivery hub purchased by customer."
      },
      "shipByThirdParty(uint256)": {
        "details": "STEP 7 : Shipping of product by third party purchased by customer."
      },
      "shipToThirdParty(uint256)": {
        "details": "STEP 3 : Shipping of purchased product to Third Party."
      }
    }
  },
  "userdoc": {
    "methods": {}
  }
}