{
  "contractName": "Thirdparty",
  "abi": [
    {
      "inputs": [],
      "payable": false,
      "stateMutability": "nonpayable",
      "type": "constructor"
    },
    {
      "anonymous": false,
      "inputs": [
        {
          "indexed": true,
          "internalType": "address",
          "name": "_account",
          "type": "address"
        }
      ],
      "name": "ThirdpartyAdded",
      "type": "event"
    },
    {
      "anonymous": false,
      "inputs": [
        {
          "indexed": true,
          "internalType": "address",
          "name": "_account",
          "type": "address"
        }
      ],
      "name": "ThirdpartyRemoved",
      "type": "event"
    },
    {
      "constant": true,
      "inputs": [
        {
          "internalType": "address",
          "name": "_account",
          "type": "address"
        }
      ],
      "name": "isThirdparty",
      "outputs": [
        {
          "internalType": "bool",
          "name": "",
          "type": "bool"
        }
      ],
      "payable": false,
      "stateMutability": "view",
      "type": "function"
    },
    {
      "constant": false,
      "inputs": [
        {
          "internalType": "address",
          "name": "_account",
          "type": "address"
        }
      ],
      "name": "addThirdparty",
      "outputs": [],
      "payable": false,
      "stateMutability": "nonpayable",
      "type": "function"
    },
    {
      "constant": false,
      "inputs": [],
      "name": "removeThirdparty",
      "outputs": [],
      "payable": false,
      "stateMutability": "nonpayable",
      "type": "function"
    }
  ],
  "bytecode": "0x608060405234801561001057600080fd5b5061002933600061005960201b6101601790919060201c565b60405133907f444c3d51dff46e2edf6e954c74fc74fe355222b88d4751e539ef67c56dbddbf490600090a26100e3565b6001600160a01b03811661006c57600080fd5b61007f82826001600160e01b036100ae16565b1561008957600080fd5b6001600160a01b0316600090815260209190915260409020805460ff19166001179055565b60006001600160a01b0382166100c357600080fd5b506001600160a01b03166000908152602091909152604090205460ff1690565b61025e806100f26000396000f3fe608060405234801561001057600080fd5b50600436106100415760003560e01c80636a04fd9614610046578063b74fd0b51461006e578063e3d89b3514610076575b600080fd5b61006c6004803603602081101561005c57600080fd5b50356001600160a01b03166100b0565b005b61006c61010a565b61009c6004803603602081101561008c57600080fd5b50356001600160a01b0316610148565b604080519115158252519081900360200190f35b6100b933610148565b6100c257600080fd5b6100d360008263ffffffff61016016565b6040516001600160a01b038216907f444c3d51dff46e2edf6e954c74fc74fe355222b88d4751e539ef67c56dbddbf490600090a250565b61011b60003363ffffffff6101ac16565b60405133907f9929e570529cf158ba0cb5b9338fd1549d34af63395e0f88a40f3901652c18fc90600090a2565b600061015a818363ffffffff6101f416565b92915050565b6001600160a01b03811661017357600080fd5b61017d82826101f4565b1561018757600080fd5b6001600160a01b0316600090815260209190915260409020805460ff19166001179055565b6001600160a01b0381166101bf57600080fd5b6101c982826101f4565b6101d257600080fd5b6001600160a01b0316600090815260209190915260409020805460ff19169055565b60006001600160a01b03821661020957600080fd5b506001600160a01b03166000908152602091909152604090205460ff169056fea265627a7a72315820377f37c1a669cd95fb194d569536de948bde6e5c6dc44a29647d2c54d57664a764736f6c63430005100032",
  "source": "// SPDX-License-Identifier: MIT\r\npragma solidity >=0.4.21 <0.9.0;\r\n\r\nimport \"./Roles.sol\";\r\n\r\ncontract Thirdparty {\r\n  using Roles for Roles.Role;\r\n\r\n  event ThirdpartyAdded(address indexed _account);\r\n  event ThirdpartyRemoved(address indexed _account);\r\n\r\n  Roles.Role private thirdpartysList;\r\n\r\n  constructor() public {\r\n    thirdpartysList.addRole(msg.sender);\r\n    emit ThirdpartyAdded(msg.sender);\r\n  }\r\n\r\n  ///@dev Modifiers for Thirdparty.\r\n  modifier onlyThirdparty() {\r\n    require(isThirdparty(msg.sender));\r\n    _;\r\n  }\r\n  /*-----------------------------*/\r\n\r\n  ///@dev Thirdparty Utility functions.\r\n  function isThirdparty(address _account) public view returns (bool) {\r\n    return thirdpartysList.hasRole(_account);\r\n  }\r\n\r\n  function addThirdparty(address _account) public onlyThirdparty {\r\n    thirdpartysList.addRole(_account);\r\n    emit ThirdpartyAdded(_account);\r\n  }\r\n\r\n  function removeThirdparty() public {\r\n    thirdpartysList.removeRole(msg.sender);\r\n    emit ThirdpartyRemoved(msg.sender);\r\n  }\r\n  /*-----------------------------*/\r\n\r\n}\r\n",
  "sourcePath": "C:\\Users\\Jane\\Desktop\\meatvaluechain\\contracts\\roles\\ThirdParty.sol",
  "compiler": {
    "name": "solc",
    "version": "0.5.16+commit.9c3226ce.Emscripten.clang"
  },
  "schemaVersion": "3.4.10",
  "updatedAt": "2022-11-28T07:46:27.457Z",
  "devdoc": {
    "methods": {
      "isThirdparty(address)": {
        "details": "Thirdparty Utility functions."
      }
    }
  },
  "userdoc": {
    "methods": {}
  }
}